:020000040800F2
:100000000050002021020008290200082D020008EB
:100010007502000879020008C10200080000000013
:10002000000000000000000000000000B5230008F0
:100030000D030008000000007D2400087121000865
:100040009D1A00089D1A00089D1A00089D1A0008B4
:100050009D1A00089D1A00089D1A00089D1A0008A4
:100060009D1A00089D1A00089D1A00089D1A000894
:100070009D1A00089D1A00089D1A00089D1A000884
:100080009D1A00089D1A00089D1A00089D1A000874
:100090009D1A00089D1A00089D1A00089D1A000864
:1000A0009D1A00089D1A00089D1A00089D1A000854
:1000B0009D1A00089D1A00089D1A00089D1A000844
:1000C0009D1A00089D1A00089D1A00089D1A000834
:1000D0009D1A00089D1A00089D1A00089D1A000824
:1000E0007D2100089D1A00089D1A000800000000EC
:1000F0000000000000000000000000000000000000
:1001000000000000000000005FF808F100B583B0B7
:1001100001F03CFC304B314A1360314A1360314BE3
:10012000314A03E011681960043304322F498B42CD
:10013000F8D32A4B1A682E4B9A4204D1284B1A68DE
:100140002C4B9A4200D0FEE7234B2B4A13602B4ADC
:1001500013602B4B02E000221A600433294A9342B9
:10016000F9D3254B1B6813B9244B1B6803B1FEE779
:1001700001F018FC01A8694601F0E2FB224B234D77
:10018000ED1AAD10002404E01F4B53F824309847BB
:100190000134A542F8DC1E4B1E4DED1AAD100024B3
:1001A00004E01B4B53F8243098470134A542F8DC97
:1001B0000198009901F0E6FE0546174B174CE41A2A
:1001C000A41004E0013C144B53F824309847002C51
:1001D000F8DC284601F090FBBABADECA0000002025
:1001E0007800002000000020543700087C00002028
:1001F00078563412325476987C000020600F00202C
:100200007C000020640F00204C0300084C03000811
:100210004C0300084C0300084C0300084C03000882
:1002200008B5FFF773FF00BF00BEFEE71EF0040F26
:100230000CBFEFF30880EFF309807146364A104790
:100240002DE9F04182B007468846084C666BA56BE5
:10025000A46A074801F07CFBCDF8008038462146AF
:1002600032462B4601F0A2FB00BEFEE700ED00E0A7
:100270004036000800BEFEE71EF0040F0CBFEFF38F
:100280000880EFF309807146244A10472DE9F041B8
:1002900082B007468846084C666BA56BA46A07487F
:1002A00001F056FBCDF800803846214632462B46F9
:1002B00001F07CFB00BEFEE700ED00E050360008D8
:1002C0001EF0040F0CBFEFF30880EFF309807146B6
:1002D000134A10472DE9F04182B007468846084C82
:1002E000666BA56BA46A074801F032FBCDF800806D
:1002F0003846214632462B4601F058FB00BEFEE749
:1003000000ED00E05C36000800BEFEE700BEFEE740
:1003100000BEFEE770470000410200088D020008A1
:04032000D5020008FA
:1003240054370008000000207C00002054370008E7
:1003340000000010000000107C000020640F00206A
:08034400000000100000001091
:10034C0010B5044601F0B4F8064BA3FB002080095D
:10035C0000F04CFB4FF0FF302146002200F008FB70
:10036C00002010BDD34D621008B5074B1A6842F03F
:10037C0010021A60032000F0E9FA0F20FFF7E0FFEB
:10038C0001F02AFE002008BD00200240024B1A6832
:10039C0001321A60704700BF80000020014B1868C2
:1003AC00704700BF8000002010B582B00190FFF7AD
:1003BC00F5FF0446FFF7F2FF001B019B9842F9D3AF
:1003CC0002B010BDF0B44B69012202FA03F30268CB
:1003DC00D2F8005225F47C554C6A45EA042444F0CA
:1003EC000104C2F800420468D4F81C52DA431540E8
:1003FC00C4F81C52CC69C4B90468D4F80C5215402A
:10040C00C4F80C5204684D69CE688F8847EA0646DA
:10041C00483544F8356004684D698E680F8847EAA2
:10042C000646483504EBC5046660CC69012C18D12E
:10043C000468D4F80C521D43C4F80C5204684D697E
:10044C000E688F8847EA0646483544F835600468DC
:10045C004D698E688F8947EA0646483504EBC5041A
:10046C0066608C6934B90468D4F804521540C4F839
:10047C00045205E00468D4F804521D43C4F8045235
:10048C000C6934B90468D4F814522A40C4F8142204
:10049C0005E00268D2F814421C43C2F814420A6AFE
:1004AC00012A05D10268D2F81C120B43C2F81C3287
:1004BC000368D3F8002222F00102C3F800220020C6
:1004CC00F0BC704738B50446002800F0918090F8D5
:1004DC00393013F0FF0F04D1002380F8383001F0CD
:1004EC00C3FD022384F8393023681A6822F0020213
:1004FC001A6023681A6842F001021A60FFF74EFF77
:10050C0005460BE0FFF74AFF401B0A2806D90320DB
:10051C0084F83900002384F8383038BD23685A68D1
:10052C0012F0010FEED05A6812F0010F51D0A269EF
:10053C00012A01D0002200E08022E169012901D1C9
:10054C0042F04002216A012901D142F02002616A85
:10055C00012901D142F01002A16A012901D142F016
:10056C000802E16A012901D142F00402196821F064
:10057C00FC010A431A602368A168E26841EA0200A0
:10058C0022691043626910436268511E40EA0102FD
:10059C00DA6123681A6822F001021A60FFF7FEFE86
:1005AC0005460BE0FFF7FAFE401B0A2806D903208C
:1005BC0084F83900002384F8383038BD23685A6831
:1005CC0012F0010FEED05B6813F0010F03D1002382
:1005DC0002E0002300E001232BB10020E0630123A3
:1005EC0084F8393038BD042384F83930012038BD03
:1005FC00012038BDF8B504460E4690F83830012B72
:10060C0000F0D280012380F8383090F83930DBB21A
:10061C00222B03D1322380F8393002E0122380F8E8
:10062C00393023689A6812F0806F09D19A6812F0F9
:10063C00006F07D19A6812F0805F05D0022504E0A4
:10064C00002502E0012500E00425042D00F0A48023
:10065C0005F118021201995801F001019950236B10
:10066C009A685AB9216805F11802120188581F6856
:10067C00DB6843EA475303438B500FE0D4F800E0A8
:10068C0005F1180109015EF80170586842EAC002D0
:10069C00DB681A4347EA02034EF80130236B1A69F0
:1006AC0002F00F021A61226805F118031B011A44AB
:1006BC00516821F00F01516022681A445068216B77
:1006CC000969014351602068226BD77D917D090433
:1006DC0041EA0761577D41EA0721127D0A4329014E
:1006EC000844C0F888212068226B92F81BE0977EA2
:1006FC003F0447EA0E6792F819E047EA0E27127E8C
:10070C003A430144C1F88C212268D15841F00101CF
:10071C00D150FFF743FE07460FE0B6F1FF3F0CD078
:10072C0026B1FFF73BFEC01BB04206D9032084F86C
:10073C003900002384F83830F8BD3DB923689B6834
:10074C001A4A13409B1A18BF012310E0012D07D140
:10075C0023689B6816490B405B1A18BF012306E0FF
:10076C0023689B68134A13409B1A18BF0123002B64
:10077C00D3D194F83930DBB2322B06D1222384F852
:10078C003930002384F8383002E0012384F8393002
:10079C00002084F83800F8BD042384F83930002395
:1007AC0084F838300120F8BD0220F8BD03000004A5
:1007BC000003000800000310F8B504460D46164669
:1007CC0090F83830012B00F0BE80012380F83830CF
:1007DC0090F83930DBB2122B03D1322380F8393048
:1007EC0002E0222380F83930FFF7D8FD07460FE0EE
:1007FC00B6F1FF3F0CD026B1FFF7D0FDC01BB042C5
:10080C0006D9032084F83900002384F83830F8BD69
:10081C003DB92368DB6813F0030F14BF00230123D9
:10082C0006E023681B6913F0030F14BF0023012398
:10083C00002BDDD1636B226805F11B0109015258B5
:10084C0002F004029A60636B9A683AB9226805F167
:10085C001B0109015258520D1A6006E0226805F17D
:10086C001B0109015258D2085A60626B216805F1CC
:10087C001B031B01C95801F00201D160626B216896
:10088C001944496801F00F011161626B21680B4436
:10089C005B68C3F30723D361626B21682B01194496
:1008AC00D1F8B8111175626B21681944D1F8B811DF
:1008BC00090A5175626B21681944D1F8B811090CF9
:1008CC009175626B21681944D1F8B811090ED17574
:1008DC00626B2168194401F5DC7149681176626B11
:1008EC002168194401F5DC714968090A5176626B7B
:1008FC002168194401F5DC714968090C9176626B29
:10090C0021680B4403F5DC735B681B0ED3762DB9A1
:10091C002368DA6842F02002DA6004E023681A697E
:10092C0042F020021A6194F83930DBB2322B03D139
:10093C00122384F8393002E0012384F83930002086
:10094C0084F83800F8BD0220F8BD00BF00F00700A5
:10095C00064AD36823F4E0631B041B0C43EA002310
:10096C0043F0BF6343F40033D360704700ED00E005
:10097C0030B4164BDB68C3F30223C3F10705042D17
:10098C0028BF04251C1D062C01D9033B00E00023C5
:10099C00012404FA05F5013D2940994004FA03F3BA
:1009AC00013B1A400A43002806DA00F00F0012013E
:1009BC00D2B2074B1A5407E01201D2B200F16040D8
:1009CC0000F5614080F8002330BC704700ED00E07A
:1009DC0014ED00E0420900F01F00012303FA00F0BF
:1009EC00014B43F82200704700E100E00138B0F100
:1009FC00807F0AD2064B5860F021064A82F82310F9
:100A0C000020986007221A6070470120704700BFD1
:100A1C0010E000E000ED00E0042805D1054B1A6859
:100A2C0042F004021A607047024B1A6822F004026A
:100A3C001A60704710E000E0F0B482B00026334634
:100A4C00D8E001249C400A682240A24240F0D180A8
:100A5C004D68122D2DD00BD8022D27D003D85DB3A5
:100A6C00012D1ED035E0032D30D0112D1BD030E0E0
:100A7C00634FBD4220D008D8A7F58017BD421BD0CC
:100A8C0007F58037BD4224D116E05E4FBD4213D02E
:100A9C0007F58037BD420FD0A7F58017BD4218D19E
:100AAC000AE0CE6815E0CE68043612E0CE6808364F
:100ABC000FE0CE680C360CE08D684DB1012D02D1E3
:100ACC000461082605E04461082602E0002600E0E7
:100ADC000426FF2A01D8044600E0041DFF2A01D891
:100AEC009D0002E0A3F10805AD0027684FF00F0C44
:100AFC000CFA05FC27EA0C0706FA05F53D432560C0
:100B0C004C6814F0805F74D03F4CA56945F001052A
:100B1C00A561A46904F001040194019C9C08A71C24
:100B2C003A4D55F8277003F00305AD004FF00F0C4C
:100B3C000CFA05FC27EA0C07DFF8D8C0604517D083
:100B4C000CF5806C604510D00CF5806C604509D0BC
:100B5C000CF5806C604502D14FF0030C0AE04FF0AD
:100B6C00040C07E04FF0020C04E04FF0010C01E024
:100B7C004FF0000C0CFA05F53D430234234F47F8B7
:100B8C0024504C6814F4803F04D0214C2568154344
:100B9C00256004E01E4C256825EA020525604C689A
:100BAC0014F4003F04D01A4C65681543656004E0EA
:100BBC00174C656825EA020565604C6814F4801FC3
:100BCC0004D0134CA5681543A56004E0104CA5682F
:100BDC0025EA0205A5604C6814F4001F04D00C4CE7
:100BEC00E5682A43E26004E0094CE56825EA020264
:100BFC00E26001330F2B7FF624AF02B0F0BC7047DC
:100C0C0000002110000031100010024000000140D3
:100C1C0000040140000801400AB101617047090459
:100C2C0001617047704700BF08B5044B5B69034214
:100C3C0003D0024B5861FFF7F5FF08BD00040140DB
:100C4C0030B583B00446036813F0010F00F09980AF
:100C5C00B44B5B6803F00C03042B0AD0B14B5B68FC
:100C6C0003F00C03082B1BD1AE4B5B6813F4803FD5
:100C7C0016D04FF4003393FAA3F3AA4B1A684FF42F
:100C8C00003393FAA3F3B3FA83F303F01F0322FAAE
:100C9C0003F313F0010F74D06368002B71D1A5E23C
:100CAC006368B3F5803F08D103F1804303F58833C3
:100CBC001A6842F480321A6026E063B903F180436B
:100CCC0003F504331A6822F480321A601A6822F48D
:100CDC0080221A6018E0B3F5A02F0CD103F18043E9
:100CEC00A3F53C331A6842F480221A601A6842F465
:100CFC0080321A6008E08B4B1A6822F480321A603A
:100D0C001A6822F480221A606368EBB1FFF746FB85
:100D1C00054605E0FFF742FB401B642800F26882A1
:100D2C004FF4003393FAA3F37E4B1A684FF400335D
:100D3C0093FAA3F3B3FA83F303F01F0322FA03F33A
:100D4C0013F0010FE6D01CE0FFF728FB054605E089
:100D5C00FFF724FB401B642800F24C824FF4003355
:100D6C0093FAA3F36F4B1A684FF4003393FAA3F37F
:100D7C00B3FA83F303F01F0322FA03F313F0010F0A
:100D8C00E6D1236813F0020F00F09080654B5B688E
:100D9C0013F00C0F0AD0634B5B6803F00C03082BA9
:100DAC0027D1604B5B6813F4803F22D1022393FA66
:100DBC00A3F35C4B1A68022393FAA3F3B3FA83F3FD
:100DCC0003F01F0322FA03F313F0010F03D023697E
:100DDC00012B40F01182534B196821F0F801626924
:100DEC00F82090FAA0F0B0FA80F082400A431A6022
:100DFC005CE023699BB3012292FAA2F3B3FA83F36A
:100E0C009B0003F1844303F584031A60FFF7C6FAD1
:100E1C00054605E0FFF7C2FA401B022800F2EE81FE
:100E2C00022393FAA3F33F4B1A68022393FAA3F31A
:100E3C00B3FA83F303F01F0322FA03F313F0010F49
:100E4C00E8D0384B196821F0F8016269F82090FA63
:100E5C00A0F0B0FA80F082400A431A6026E0012329
:100E6C0093FAA3F3B3FA83F39B0003F1844303F5E2
:100E7C00840300221A60FFF791FA054605E0FFF79C
:100E8C008DFA401B022800F2BB81022393FAA3F3D4
:100E9C00244B1A68022393FAA3F3B3FA83F303F0F7
:100EAC001F0322FA03F313F0010FE8D1236813F0A8
:100EBC00080F53D0A3693BB3012393FAA3F1B1FA02
:100ECC0081F1194A42F82130FFF768FA054605E02E
:100EDC00FFF764FA401B022800F29481022393FA74
:100EEC00A3F293FAA3F20F4A526A93FAA3F3B3FA5A
:100EFC0083F303F01F0322FA03F313F0010FE7D07F
:100F0C000120FFF751FA29E0012292FAA2F2B2FA7B
:100F1C0082F20021044B43F82210FFF73FFA0546FA
:100F2C000AE000BF0010024080044242FFF736FA8C
:100F3C00401B022800F26881022393FAA3F293FA71
:100F4C00A3F2BB4A526A93FAA3F3B3FA83F303F006
:100F5C001F0322FA03F313F0010FE7D1236813F0F8
:100F6C00040F00F09F80B24BDA6942F08052DA61D4
:100F7C00DB6903F080530193019BAE4B1A6842F47A
:100F8C0080721A60FFF70AFA054605E0FFF706FAC9
:100F9C00401B642800F23A81A64B1B6813F4807F37
:100FAC00F4D0E368012B05D1A14B1A6A42F001027F
:100FBC001A6222E063B903F1804303F504331A6A21
:100FCC0022F001021A621A6A22F004021A6214E078
:100FDC00052B09D1964B1A6A42F004021A621A6A5E
:100FEC0042F001021A6208E0914B1A6A22F00102E7
:100FFC001A621A6A22F004021A62E3684BB3FFF712
:10100C00CDF9054607E0FFF7C9F9401B41F28833DB
:10101C00984200F2FD80022393FAA3F293FAA3F311
:10102C00B3FA83F343F040035B09022B02D1804BEC
:10103C001A6A01E07E4B5A6A022393FAA3F3B3FABD
:10104C0083F303F01F0322FA03F313F0010FDAD03A
:10105C0028E0FFF7A3F9054607E0FFF79FF9401BCF
:10106C0041F28833984200F2D580022393FAA3F21E
:10107C0093FAA3F3B3FA83F343F040035B09022B17
:10108C0002D16B4B1A6A01E0694B5A6A022393FA3C
:10109C00A3F3B3FA83F303F01F0322FA03F313F061
:1010AC00010FDAD1E369002B00F0B680604A526878
:1010BC0002F00C02082A00F0B180022B6BD14FF029
:1010CC00807393FAA3F3B3FA83F39B0003F1844385
:1010DC0003F5840300221A60FFF760F9054605E06A
:1010EC00FFF75CF9401B022800F29A804FF0007366
:1010FC0093FAA3F34E4B1A684FF0007393FAA3F3D1
:10110C00B3FA83F303F01F0322FA03F313F0010F76
:10111C00E6D1236AB3F5803F09D103F1804303F58F
:10112C008833596821F40031A2680A435A60404B55
:10113C00596821F47411206A626A02430A435A60A6
:10114C004FF0807393FAA3F3B3FA83F39B0003F18C
:10115C00844303F5840301221A60FFF71FF9044648
:10116C0004E0FFF71BF9001B02285BD84FF000735B
:10117C0093FAA3F32E4B1A684FF0007393FAA3F370
:10118C00B3FA83F303F01F0322FA03F313F0010FF6
:10119C00E7D0002049E04FF0807393FAA3F3B3FA41
:1011AC0083F39B0003F1844303F5840300221A604C
:1011BC00FFF7F4F8044604E0FFF7F0F8001B0228F0
:1011CC0032D84FF0007393FAA3F3194B1A684FF00F
:1011DC00007393FAA3F3B3FA83F303F01F0322FA19
:1011EC0003F313F0010FE7D100201EE001201CE0F7
:1011FC0003201AE0032018E0012016E0032014E07D
:10120C00032012E0032010E003200EE003200CE08A
:10121C0003200AE0032008E0002006E0012004E09F
:10122C00032002E0032000E0032003B030BD00BF28
:10123C00001002400070004030B486B01F4D02AC6C
:10124C0028686968AA68EB680FC42B8AADF804306B
:10125C001B4B5B6803F00C02082A2AD103F47011B3
:10126C004FF4701292FAA2F2B2FA82F221FA02F25E
:10127C0006A90A4412F8102C13F4803F15D0104B19
:10128C00596801F400314FF4003393FAA3F3B3FA25
:10129C0083F321FA03F306A90B4413F8143C094811
:1012AC00B0FBF3F002FB00F004E0074800FB02F097
:1012BC0000E0044806B030BC704700BF1035000891
:1012CC000010024000127A0000093D0070B504467F
:1012DC000D46734B1B6803F007038B420BD2704B0C
:1012EC001A6822F007020A431A601B6803F007030E
:1012FC008B4240F0C480236813F0020F06D0694B78
:10130C00596821F0F001A2680A435A60236813F06F
:10131C00010F75D06368012B13D14FF4003292FA90
:10132C00A2F2604A11684FF4003292FAA2F2B2FAB9
:10133C0082F202F01F0221FA02F212F0010F27D101
:10134C009FE0022B13D14FF0007292FAA2F2554A91
:10135C0011684FF0007292FAA2F2B2FA82F202F025
:10136C001F0221FA02F212F0010F11D18BE00222BE
:10137C0092FAA2F24B4A1168022292FAA2F2B2FA43
:10138C0082F202F01F0221FA02F212F0010F7CD05D
:10139C00444A516821F003010B435360FEF7FEFFF2
:1013AC0006466368012B0ED106E0FEF7F7FF801BA3
:1013BC0041F2883398426AD83A4B5B6803F00C03CD
:1013CC00042BF2D11CE0022B15D106E0FEF7E6FF50
:1013DC00801B41F2883398425BD8324B5B6803F038
:1013EC000C03082BF2D10BE0FEF7D8FF801B41F267
:1013FC00883398424FD82B4B5B6813F00C0FF3D10A
:10140C00274B1B6803F00703AB420AD9244B1A681D
:10141C0022F007022A431A601B6803F00703AB4251
:10142C003BD1236813F0040F06D01E4B596821F4EE
:10143C00E061E2680A435A60236813F0080F07D092
:10144C00184B5A6822F46052216942EAC1025A6070
:10145C00FFF7F2FE134B5A6802F0F002F02393FAF6
:10146C00A3F3B3FA83F322FA03F30F4AD35CD84005
:10147C000E4B18600F20FEF763FF002070BD01209B
:10148C0070BD012070BD012070BD012070BD032016
:10149C0070BD032070BD032070BD012070BD00BF66
:1014AC0000200240001002406C3600080C000020A6
:1014BC00014B1868704700BF0C00002008B5FFF7FF
:1014CC00F7FF084B5A6802F4E0624FF4E06393FABA
:1014DC00A3F3B3FA83F322FA03F3034AD35CD840A1
:1014EC0008BD00BF001002407C36000808B5FFF7AD
:1014FC00DFFF084B5A6802F460524FF4605393FAC2
:10150C00A3F3B3FA83F322FA03F3034AD35CD84070
:10151C0008BD00BF001002407C3600082DE9F843DE
:10152C0004460368196921F44051C2680A431A61E0
:10153C00826803691A43436942EA03010268D3686B
:10154C0023F4B05323F00C030B43D36003685969A5
:10155C0021F4407182690A435A6106685A4B9E42D3
:10156C0058D1FFF7C3FF00EB800000EB80006368ED
:10157C009B00B0FBF3F9554DA5FB09294FEA59190E
:10158C004FEA0919FFF7B2FF00EB800000EB800077
:10159C0063689B00B0FBF3F8FFF7A8FF00EB80003B
:1015AC0000EB800063689B00B0FBF3F3A5FB032307
:1015BC005B09642707FB13884FEA081808F1320807
:1015CC00A5FB08384FEA581808F0F008C844FFF794
:1015DC008DFF00EB800000EB800063689B00B0FB8C
:1015EC00F3F9FFF783FF00EB800000EB80006368EA
:1015FC009B00B0FBF3F3A5FB03235B0907FB1397DD
:10160C003F013237A5FB0735C5F343154544B5609B
:10161C00BDE8F883FFF752FF00EB800000EB800081
:10162C0063689B00B0FBF3F9284DA5FB09294FEA31
:10163C0059194FEA0919FFF741FF00EB800000EB45
:10164C00800063689B00B0FBF3F8FFF737FF00EBFB
:10165C00800000EB800063689B00B0FBF3F0A5FBFF
:10166C0000304009642707FB10884FEA081808F17E
:10167C003208A5FB08284FEA581808F0F008C844AF
:10168C00FFF71CFF00EB800000EB800063689B0001
:10169C00B0FBF3F9FFF712FF00EB800000EB8000CA
:1016AC0063689B00B0FBF3F0A5FB0030400907FB1F
:1016BC0010973F013237A5FB0725C5F34315454469
:1016CC00B560BDE8F88300BF003801401F85EB51C1
:1016DC002DE9F04106460C4690461D46FEF75EFE8F
:1016EC000746B8F1000F26D053E0B5F1FF3F22D0EA
:1016FC0025B1FEF753FEC01BA8421CD93368DA682B
:10170C0022F08002DA603368DA6822F02002DA60B4
:10171C003368DA6822F48072DA6033685A6922F02E
:10172C0001025A61012386F83930002386F83830DB
:10173C000320BDE8F08133681B682340A342D4D159
:10174C000020BDE8F081B5F1FF3F22D025B1FEF7B6
:10175C0025FEC01BA8421CD93368DA6822F080022F
:10176C00DA603368DA6822F02002DA603368DA680B
:10177C0022F48072DA6033685A6922F001025A61ED
:10178C00012386F83930002386F838300320BDE871
:10179C00F08133681B682340A342D4D00020BDE8FD
:1017AC00F08100BF10B5044648B390F8393013F0FF
:1017BC00FF0F04D1002380F8383000F08BFC02239B
:1017CC0084F839302368DA6822F40052DA60204653
:1017DC00FFF7A4FE23681A6922F490421A61236869
:1017EC005A6922F02A025A612368DA6842F40052DC
:1017FC00DA600020E063012384F8393010BD012049
:10180C0010BD00BF70B504460D461E4690F8393029
:10181C00DBB2012B01D0222B59D1002D59D0002A3B
:10182C0059D094F83830012B57D0012384F8383034
:10183C000023E36394F83930DBB2222B03D132233B
:10184C0084F8393002E0122384F83930A284E2841F
:10185C0023E0013AE284A268B2F5805F12D12046FF
:10186C00802100223346FFF733FF002837D123684D
:10187C002A88C2F308025A6023690BB902350CE0BE
:10188C0001350AE02046802100223346FFF720FF75
:10189C0038BB23682A785A600135E28C002AD8D1EB
:1018AC00204640213346FFF713FF0346D8B994F87E
:1018BC003920D2B2322A03D1222284F8392002E014
:1018CC00012284F83920002284F838200CE002230D
:1018DC000AE0012308E0012306E0022304E00323CD
:1018EC0002E0032300E00323184670BDFEE700BFAF
:1018FC0008B50D4B1B6813B90C4A0B4B1A600A4BFD
:10190C001B68033020F003001844094A904206D9A2
:10191C0001F0B2F90C2303604FF0FF3008BD024A0E
:10192C001060184608BD00BF84000020640F002022
:10193C00004C002001230360014B0B60704700BF7B
:10194C00040000200FB400B583B004AB53F8042B93
:10195C0001930848802101F0C3FC011E03DD0548FA
:10196C0000F00AF80146084603B05DF804EB04B039
:10197C00704700BF8C0000204FF0FF30704700BF55
:10198C0008B500F087F8024B024A9A6008BD00BF08
:10199C0000ED00E00000000808B500F0A1F808BD5B
:1019AC00F8B504460D4617461E462648FFF7CAFFF3
:1019BC0025482168FFF7C6FF24486168FFF7C2FF7E
:1019CC002348A168FFF7BEFF2248E168FFF7BAFF82
:1019DC0021482169FFF7B6FF20486169FFF7B2FF84
:1019EC001F48A169FFF7AEFF1E48E169FFF7AAFF88
:1019FC001D48FFF7A7FF1D482946FFF7A3FF1C4C06
:101A0C00E16A1C48FFF79EFF216B1B48FFF79AFF0A
:101A1C00E16B1A48FFF796FF15F0800F03D01848BA
:101A2C003946FFF78FFF15F4004F03D015483146A8
:101A3C00FFF788FF1448FFF785FF14480699FFF756
:101A4C0081FFF8BD24350008343500084435000802
:101A5C0054350008643500087435000884350008D6
:101A6C0094350008A4350008B4350008C0350008CA
:101A7C0000ED00E0D0350008E0350008F035000836
:101A8C0000360008103600082036000828360008FA
:101A9C00FFF7FEBF0F4B1A6842F001021A6059683B
:101AAC000D4A0A405A601A6822F0847222F480327D
:101ABC001A601A6822F480221A605A6822F4FE0214
:101ACC005A604FF41F029A604FF00062034B9A6009
:101ADC00704700BF001002400000FFF800ED00E06E
:101AEC001F4B5B6803F00C03042B06D0082B08D0AB
:101AFC003BBB1C4A1C4B1A6026E01A4A1A4B1A6054
:101B0C0022E0174B5A685B68C2F38342023213F42B
:101B1C00803F05D1154B03FB02F2134B1A6013E007
:101B2C000F4B5B6813F4003F05D0104B03FB02F224
:101B3C000D4B1A6008E00B4B03FB02F20A4B1A60C8
:101B4C0002E0084A084B1A60054B5B68C3F30313A9
:101B5C00074AD15C044B1A68CA401A60704700BF30
:101B6C000010024000127A000C00002000093D0019
:101B7C006C36000830B589B0244B9A6942F01002DB
:101B8C009A619A6902F010020092009A9A6942F0E6
:101B9C0020029A619A6902F020020192019A9A69D4
:101BAC0042F004029A619A6902F004020292029ACB
:101BBC009A6942F008029A619B6903F00803039347
:101BCC00039B134D284620210022FFF725F84FF4E4
:101BDC00005304930F4B0593002406940E4804A95C
:101BEC00FEF72AFF20230493012305930223079376
:101BFC00284604A9FEF720FF282005212246FEF7DF
:101C0C00B7FE2820FEF7E6FE09B030BD00100240FA
:101C1C0000080140000021100010014030B587B0D1
:101C2C002B4C204601F05CF882B22A4821464FF03A
:101C3C00FF33FFF7E7FD284800214FF47A72FEF7D7
:101C4C00BBFDB8B1254C204601F04AF8214D82B2BB
:101C5C00284621464FF0FF33FFF7D4FD1C4C20469D
:101C6C0001F03EF882B2284621464FF0FF33FFF7D1
:101C7C00C9FD27E0184B5B6B01A819491A7D01F0CF
:101C8C000BF8184D284601F02BF8124C82B2204666
:101C9C0029464FF0FF33FFF7B5FD01A801F020F8FE
:101CAC0082B2204601A94FF0FF33FFF7ABFD084D80
:101CBC00284601F015F882B2204629464FF0FF3332
:101CCC00FFF7A0FD41F2707000F026FFA8E700BFFF
:101CDC0084360008200F0020A00E00208836000853
:101CEC00983600089C36000830B587B0344B1B6B17
:101CFC00FF221A7532484FF47A71FEF77BFC0128EB
:101D0C0016D1304800F0ECFF2F4D82B228462F49F7
:101D1C004FF0FF33FFF776FD2D4C204600F0E0FF2F
:101D2C0082B2284621464FF0FF33FFF76BFD42E0AD
:101D3C00032817D1274C204600F0D2FF224D82B247
:101D4C00284621464FF0FF33FFF75CFD204C204620
:101D5C0000F0C6FF82B2284621464FF0FF33FFF752
:101D6C0051FD28E038BB1C4D284600F0B9FF164C3D
:101D7C0082B2204629464FF0FF33FFF743FD104B4C
:101D8C001B6B01A815491A7D00F086FF01A800F015
:101D9C00A7FF82B2204601A94FF0FF33FFF732FDB7
:101DAC000B4D284600F09CFF82B2204629464FF08E
:101DBC00FF33FFF727FD4FF4FA6000F0ADFE99E713
:101DCC00A00E0020A8360008200F0020BC3600080A
:101DDC0084360008D0360008D8360008983600083B
:101DEC00FEE700BF00B58BB02048214B0363214BAD
:101DFC004363214B03600823436000238360C3606B
:101E0C004FF48032026143618361C36103624362B8
:101E1C008362C362FEF756FB20B1184840F22F11C3
:101E2C00FFF7DEFF1148036B21221A60026B0023BF
:101E3C009360026BD360026B0221116105930693D0
:101E4C000122079200930193029303930493089247
:101E5C000E2309936946FEF7B5FA20B107484FF4F3
:101E6C00A471FFF7BDFF0BB05DF804FBA00E0020C2
:101E7C000C0100202801002000640040E836000816
:101E8C0008B50B480B4B03604FF4E1334360002360
:101E9C008360C36003610C2242618361C361FFF7FD
:101EAC0081FC20B104484FF4AE71FFF799FF08BDD7
:101EBC00E00E002000380140E836000808B50B4859
:101ECC000B4B03604FF4E133436000238360C3602A
:101EDC0003610C2242618361C361FFF763FC20B193
:101EEC00044840F26F11FFF77BFF08BD200F002064
:101EFC0000440040E836000800B591B00223069378
:101F0C0001220A9210220B920D9300230E930F9331
:101F1C0006A8FEF795FE18B11548F721FFF760FFEC
:101F2C000F23019302230293002103914FF480634A
:101F3C000493059101A8FFF7C9F920B10C4840F2B0
:101F4C000511FFF74DFFFFF7B3FA0A4BA3FB002077
:101F5C008009FEF74BFD0420FEF75EFD4FF0FF30CD
:101F6C000F210022FEF704FD11B05DF804FB00BF49
:101F7C00E8360008D34D621000B585B0FEF7F4F9D1
:101F8C00FFF7BAFFFFF7F6FDFFF72CFFFFF778FF1F
:101F9C00FFF794FF0125009500240194029403940B
:101FAC0009480A498022234600F000FC0095019460
:101FBC0002940394064807498022234600F0F6FB5E
:101FCC0000F07AFCFEE700BF291C0008F836000878
:101FDC00F51C00080837000800B583B0204B9A693F
:101FEC0042F001029A619B6903F001030193019B8A
:101FFC000320FEF7ABFC6FF00B0000210A46FEF746
:10200C00B7FC6FF00A0000210A46FEF7B1FC6FF036
:10201C00090000210A46FEF7ABFC6FF0040000211A
:10202C000A46FEF7A5FC6FF0030000210A46FEF7F6
:10203C009FFC6FF001000F210022FEF799FC4FF07E
:10204C00FF300F210022FEF793FC064B5A6822F05A
:10205C00E06242F000725A6003B05DF804FB00BF0E
:10206C00001002400000014010B586B00268164B0B
:10207C009A4227D103F5D633DA6942F00072DA615D
:10208C00DB6903F000730193019B4FF4807302939F
:10209C000023039304930D4C204602A9FEF7CCFCBD
:1020AC004FF40073029302230393032305932046FA
:1020BC0002A9FEF7C1FC064B5A6822F4C04242F456
:1020CC0080425A6006B010BD00640040000C014014
:1020DC000000014010B586B003681E4A934220D11F
:1020EC001D4B9A6942F480429A619B6903F48043C8
:1020FC000093009B4FF4007302930223039303237A
:10210C000593164C204602A9FEF796FC4FF480630B
:10211C000293002303930493204602A9FEF78CFC40
:10212C0015E00F4A934212D10B4BDA6942F400329C
:10213C00DA61DB6903F400330193019B0C230293F6
:10214C00022303930593054802A9FEF775FC06B01C
:10215C0010BD00BF003801400010024000080140D3
:10216C000044004008B5FEF711F900F011FA08BD63
:10217C0008B54FF40050FEF757FD08BD124B13F095
:10218C00070F07D0D91D21F00701C1F540621A4491
:10219C000B4601E04FF440620C48036000214160A3
:1021AC001A44083A22F00702094802605160116093
:1021BC00D11A59601A60074B1960074B19604FF020
:1021CC000042064B1A6070475C010020540100204D
:1021DC0050010020600D00204C0100205C0D0020FF
:1021EC0010B4134A00E01A4613688342FBD35168BB
:1021FC005418844203D14068014451601046416830
:10220C004418A3420CD10B4C2468A34206D05B6843
:10221C001944416013681B68036002E0046000E02D
:10222C000360824200D010605DF8044B704700BF21
:10223C00540100205001002070B5054600F06AFBE7
:10224C002D4B1B680BB9FFF799FF2C4B1B681D42DC
:10225C0041D135B1083515F0070F02D025F007052F
:10226C000835002D39D0264B1B689D4237D8254A9E
:10227C00146801E022461C466368AB4202D2236814
:10228C00002BF7D11C4B1B689C422AD016680836D1
:10229C002368136063685B1B102B0AD9601910F05C
:1022AC00070F02D000F09EF8FEE743606560FFF771
:1022BC0097FF626812490B689B1A0B6012490968F8
:1022CC008B4201D210490B600C4B1B681A436260A5
:1022DC000023236006E0002604E0002602E000262E
:1022EC0000E0002600F0AAFB16F0070F02D000F069
:1022FC0079F8FEE7304670BD500100205C0D0020DF
:10230C004C01002054010020600D002038B504461B
:10231C0020B3A0F1080550F8043C114A126813EAE6
:10232C00020002D100F05EF8FEE754F8081C11B16F
:10233C0000F058F8FEE788B181B923EA020344F8AB
:10234C00043C00F0E7FA54F8041C064B1A680A44E3
:10235C001A602846FFF744FF00F070FB38BD00BF41
:10236C005C0D00204C01002006480068006880F3DA
:10237C00088862B661B6BFF34F8FBFF36F8F00DF73
:10238C0000BF000008ED00E04FF0807340F8043C03
:10239C0040F8081C034B40F80C3C40F8202C40380B
:1023AC00704700BF01240008074B19680868B0E8A3
:1023BC00F00F80F30988BFF36F8F4FF0000080F3AC
:1023CC0011884EF00D0E7047240E00204FF08052F5
:1023DC00034B1A60BFF34F8FBFF36F8F704700BF73
:1023EC0004ED00E0EFF311804FF0500181F3118800
:1023FC007047002008B5054B1B68B3F1FF3F02D0B6
:10240C00FFF7F0FFFEE7FFF7EDFFFEE710000020FF
:10241C0008B5FFF7E7FF094A136801331360BFF3F0
:10242C004F8FBFF36F8F012B07D1054B1B6813F038
:10243C00FF0F02D0FFF7D6FFFEE708BD100000200B
:10244C0004ED00E080F31188704700BF08B5074B1E
:10245C001B6813B9FFF7C6FFFEE7013B034A136085
:10246C0013B90020FFF7EEFF08BD00BF10000020DD
:10247C00EFF30980BFF36F8F0D4B1A6820E9F00F53
:10248C0010602DE908404FF0500080F3118800F0E7
:10249C00ABFB4FF0000080F31188BDE808401968D1
:1024AC000868B0E8F00F80F30988BFF36F8F7047AE
:1024BC00240E002008B5FFF795FF00F033FA18B191
:1024CC004FF08052024B1A600020FFF7BBFF08BD93
:1024DC0004ED00E0064B1A68064BA3FB02129209AE
:1024EC00013A054B1A600722043B1A60704700BF83
:1024FC000C000020D34D621014E000E000B583B056
:10250C001F4B1A78D2B20192FF221A701B78DBB2E1
:10251C008DF803309DF8032002F05002194B1A700D
:10252C000722194B1A6009E0174B1A68013A1A6016
:10253C009DF803305B00DBB28DF803309DF803305F
:10254C0013F0800FF0D1104B1A68120202F4E06203
:10255C001A60019AD2B20A4B1A7003F512631A6808
:10256C0042F470021A601A6842F070421A60FFF767
:10257C00B1FF0022054B1A60FFF7F6FEFFF73AFF9A
:10258C0000E400E0640D0020680D00201000002025
:10259C0008B500F061FB012801D0FFF78BFF08BDE7
:1025AC0000F1080343604FF0FF328260C3600361A7
:1025BC0000230360704700BF00230361704700BF16
:1025CC0043684B609A688A609A68516099600861A8
:1025DC00036801330360704730B40D68B5F1FF3FF9
:1025EC0001D1026907E000F1080200E01A465368C5
:1025FC001C68AC42FAD953684B6099608A60516090
:10260C00086103680133036030BC7047036942689A
:10261C00816891608268416851605A68824201D138
:10262C0082685A600022026118680138186070478D
:10263C000A4B1B681B680BB9012300E0002323B174
:10264C004FF0FF32064B1A607047044B1B68DB6877
:10265C00DB685A68024B1A60704700BF6C0D002093
:10266C00280E002038B50C4619B98000FFF7E4FDA0
:10267C00044654B15420FFF7DFFD054608B104634E
:10268C0004E02046FFF742FE00E00025284638BD56
:10269C0010B50446006BFFF739FE2046FFF736FEF7
:1026AC0010BD00BF70B504461646002306E0CD5C95
:1026BC00E01880F83450C85C10B101330F2BF6D9F8
:1026CC00002384F84330062E00D90626E6626664A1
:1026DC000025A564201DFFF76FFF04F11800FFF71C
:1026EC006BFF2461C6F10706A6616462E56484F899
:1026FC00505070BD38B5002406E014200E4B00FB82
:10270C000430FFF74DFF0134062CF6D90B4D28464B
:10271C00FFF746FF0A4C2046FFF742FF0948FFF738
:10272C003FFF0948FFF73CFF0848FFF739FF084B0C
:10273C001D60084B1C6038BD900D0020500E002011
:10274C00640E0020380E0020780D0020780E00203A
:10275C006C0D0020340E002010B504460E4B1B6887
:10276C0058600E4B1B68984207D20D4B18680A4BE9
:10277C0019680431FFF730FF10BD0A4B1868064B7F
:10278C0019680431FFF728FF074B1B689C4201D2E4
:10279C00054B1C6010BD00BF240E0020300E002025
:1027AC00340E00206C0D0020280E00202DE9F04F77
:1027BC0083B08B46164699460C9DDDF834808246D4
:1027CC0010B9FFF70FFEFEE7062D02D9FFF70AFE40
:1027DC00FEE710460E99FFF745FF044600284CD043
:1027EC00036B06F18047013F03EB870727F00707D0
:1027FC00009659462A460F9BFFF754FF3846514620
:10280C004A46FFF7C1FD2060B8F1000F01D0C8F8AF
:10281C000040FFF7FDFD224B1A6801321A60214B74
:10282C001B6843B91F4B1C601D4B1B68012B0CD143
:10283C00FFF760FF09E01C4B1B6833B9194B1B6891
:10284C00DB6AAB4201D8174B1C60184B1A6801327B
:10285C001A60E36A012606FA03F0154A116801436F
:10286C00116003EB83039B0012481844211DFFF7F2
:10287C00A7FEFFF7EBFD344601E04FF0FF34012CCF
:10288C0009D1094B1B6833B1064B1B68DB6AAB42A1
:10289C0001D2FFF79BFD204603B0BDE8F08F00BFCF
:1028AC00200E0020240E0020700D00204C0E002065
:1028BC008C0E0020900D002000B585B000230093F5
:1028CC000193029303930E480E498022FFF76EFF8B
:1028DC0001280ED1FFF786FD4FF0FF320A4B1A602C
:1028EC0001220A4B1A600022094B1A60FFF706FE00
:1028FC0003E010B9FFF776FDFEE705B05DF804FBC9
:10290C00DD2B000814370008280E0020700D002065
:10291C00300E0020024B1A6801321A60704700BF5B
:10292C001C0E0020F8B53A4B1B68002B63D1394BB9
:10293C001A6801321A601E6896B9374B1B681B68FF
:10294C0013B1FFF74FFDFEE7334A1168334B18689C
:10295C0010601960324B1A6801321A60FFF768FE7A
:10296C00304B1B689E4203D2002439E0012400E066
:10297C000024294B1B681B680BB9012300E00023C2
:10298C0023B14FF0FF32274B1A6029E0224B1B6812
:10299C00DB68DD686B689E4202D2224A13601FE03E
:1029AC002F1D3846FFF732FEAB6A1BB105F118003C
:1029BC00FFF72CFEEB6A012098401B4A116801437B
:1029CC00116003EB83039B00184818443946FFF74A
:1029DC00F7FDEA6A164B1B68DB6A9A42C6D2C8E757
:1029EC00134B1B68DB6A03EB83039B000F4AD35822
:1029FC00012B06D806E00F4B1A6801321A6000242E
:102A0C0000E001240C4B1B6803B101242046F8BDE7
:102A1C001C0E0020300E00206C0D0020340E002007
:102A2C002C0E0020280E00208C0E0020900D002073
:102A3C00240E00208C0D0020900E002038B52E4B5B
:102A4C001B6813B9FFF7CEFCFEE7FFF7E1FC2A4B3E
:102A5C001A68013A1A601B68002B45D1274B1B687A
:102A6C0023BB002443E0264BDB68DC6804F1180030
:102A7C00FFF7CCFD251D2846FFF7C8FDE36A0120B2
:102A8C009840204A11680143116003EB83039B00BB
:102A9C001D4818442946FFF793FDE26A1B4B1B683F
:102AAC00DB6A9A4202D30122194B1A60144B1B6841
:102ABC00002BD8D1174B1B6853B90DE0FFF732FF31
:102ACC0010B10122124B1A60124B1A68013A1A60AB
:102ADC00104B1B68002BF1D10D4B1B68012B05D142
:102AEC00FFF774FC012402E0002400E00024FFF74F
:102AFC00ADFC204638BD00BF1C0E0020200E00206F
:102B0C00380E00208C0E0020900D0020240E00208A
:102B1C00900E00208C0D002010B5044600B3134B12
:102B2C001B6813B1FFF75EFCFEE7FFF7F3FE104BDB
:102B3C001B681C440F4B18680430FFF767FD48B93D
:102B4C000C4B1B68DB6A012199400B4B1A6822EA7B
:102B5C0001021A602046FFF7FFFDFFF76FFF00E050
:102B6C00002008B9FFF732FC10BD00BF1C0E00207E
:102B7C00300E0020240E00208C0E002010B51BE01F
:102B8C00FFF7C8FE0F4B1C68FFF758FFA4B1FFF707
:102B9C003FFC0C4BDB68DC68201DFFF737FD0A4B54
:102BAC001A68013A1A60094B1A68013A1A60FFF761
:102BBC004DFC2046FFF76CFD044B1B68002BDFD14E
:102BCC0010BD00BF780D0020200E0020740D0020D9
:102BDC0008B5FFF7D3FF034B1B68012BF9D9FFF79F
:102BEC00F5FBF6E7900D002008B5164B1B681BB1E2
:102BFC000122154B1A6008BD0022134B1A60134BAF
:102C0C001B68B3FA83F3DBB2C3F11F0303EB83023C
:102C1C0092000F498A5812B9FFF7E4FBFEE703EB69
:102C2C0083039B000A4A13445A6852685A6003F1A2
:102C3C0008018A4201D152685A605B68DA68054B18
:102C4C001A6008BD1C0E0020900E00208C0E002077
:102C5C00900D0020240E0020054B1B6823B1054B62
:102C6C001B681BB902207047012070470020704779
:102C7C00700D00201C0E0020014B1868704700BF1F
:102C8C007400002010B50023934203D0CC5CC454D4
:102C9C000133F9E710BD00000EB400B54FF402711A
:102CAC009CB0ADF814106FF00041049107914FF6F1
:102CBC00FF711DABADF81610084953F8042B0290A8
:102CCC000690086802A9019300F06EF8029B00229E
:102CDC001A701CB05DF804EB03B070477400002050
:102CEC00034613F8012B002AFBD1181A0138704740
:102CFC002DE9F0478D688146AB420C4692461F4643
:102D0C0043D38B8913F4906F3DD026680969022256
:102D1C00C1EB0608666906EB460696FBF2F608F16F
:102D2C0001023A44964238BF16465B050FD5314630
:102D3C0000F054FB054698B121694246FFF7A2FF0B
:102D4C00A38923F4906343F08003A38113E03246FC
:102D5C0000F098FB054670B94846216900F0FAFA74
:102D6C000C23C9F80030A3894FF0FF3043F0400327
:102D7C00A381BDE8F087256166614544C8EB060672
:102D8C002560A6603D46AF4200D23D462A462068EB
:102D9C00514600F0C3FAA36800205B1BA3602368B4
:102DAC001D442560BDE8F0872DE9F0439DB00393E9
:102DBC008B8907461C060D4616460CD50B6953B974
:102DCC00402100F00BFB2860286110B90C233B60FC
:102DDC00C7E040236B610023099320238DF8293031
:102DEC0030238DF82A3033461C4613F8012B1AB9C0
:102DFC00B4EB06090FD002E0252AF5D1F8E73846E6
:102E0C00294632464B46FFF773FF013000F0A48091
:102E1C00099B4B4409932378002B00F09D800023E1
:102E2C004FF0FF3204930793059206938DF85330BD
:102E3C001A9304F101094D4E4C4630462178052277
:102E4C0000F05EFA09F10109049B28B1861B0120F0
:102E5C00B04003430493EEE7D90644BF20228DF81B
:102E6C0053201A0744BF2B228DF8532022782A2A8C
:102E7C0002D0079B21460EE0039A111D12680391A4
:102E8C00002A01DB079204E0524243F0020307924E
:102E9C00049301340AE00C4622780131303A092AB5
:102EAC0003D80A2000FB0323F5E7079323782E2B86
:102EBC0019D163782A2B09D1039B02341A1D1B6884
:102ECC000392002BB8BF4FF0FF330BE0611C0023C3
:102EDC000C4622780131303A092A03D80A2000FB2B
:102EEC000323F5E70593224E21783046032200F0A8
:102EFC0007FA30B1861B4020B040049B01340343D9
:102F0C00049321781B480622661C8DF8281000F0CB
:102F1C00F7F988B1184B33B9039B073323F0070338
:102F2C000833039314E003AB0093384604A92A46F4
:102F3C00124BAFF3008007E003AB0093384604A9B3
:102F4C002A460E4B00F08EF8B0F1FF3F804603D0BE
:102F5C00099B4344099346E7AB895B0601D4099866
:102F6C0001E04FF0FF301DB0BDE8F0831E370008C4
:102F7C00243700082837000800000000FD2C00084A
:102F8C002DE9F84315461F468A680B6906469A4296
:102F9C00A8BF13462B6091F843200C46DDF8208027
:102FAC000AB101332B602368990602D52B680233D2
:102FBC002B60236813F006091DD094F84330226867
:102FCC00003318BF012392061FD5E118302081F879
:102FDC0043005A1C94F845102244023382F84310E3
:102FEC0013E03046394604F119020123C047013081
:102FFC0007D009F10109E2682B68D31A9945F0DB77
:10300C00DBE74FF0FF30BDE8F8833046394604F17A
:10301C004302C0470130F4D023682A6803F006034A
:10302C00E168042B08BFC2EB01052369A2680CBF41
:10303C0025EAE57500259A42C4BFC3EB0203ED18DF
:10304C004FF00009A9450ADA3046394604F11A0254
:10305C000123C0470130D4D009F10109F2E7002067
:10306C00BDE8F8832DE9FF470E7E80466E2E0C4698
:10307C0091469A460C9D01F1430000F0A58011D8B1
:10308C00632E22D009D8002E00F0AF80582E40F0CD
:10309C00BF8081F845607B4A4FE0642E1ED0692EBC
:1030AC001CD0B5E0732E00F0A48009D86F2E2BD065
:1030BC00702E40F0AD800B6843F020030B6038E0BD
:1030CC00752E21D0782E34D0A2E02B6801F1420766
:1030DC001A1D1B682A6081F842309DE022682B681B
:1030EC0012F0800F03D01A1D2A601D6805E05106EE
:1030FC00F9D51A1D2A60B3F90050002D39DA2D23A9
:10310C006D4284F8433034E022682B6812F0800F53
:10311C0003D01A1D2A601D6804E05206F9D51A1D49
:10312C002A601D88237E574A6F2B14BF0A2308235D
:10313C001BE07823544A84F845302368296813F03F
:10314C00800F01F104062E6001D00D6802E05F06CD
:10315C00FBD50D88DE0744BF43F0200323601DB967
:10316C00236823F0200323601023002184F84310EC
:10317C0001E0444A0A236668002EA66003DB21683E
:10318C0021F00401216005B96EB104F14201B5FBD7
:10319C00F3F603FB1655555D0F4601F801593546FC
:1031AC00002EF4D100E00746082B0AD12368DD0776
:1031BC0007D5626823699A4203DC302307F8013C87
:1031CC00013FC01B20612CE009682B6811F0800FB7
:1031DC00626904D0191D29601B681A6005E0490654
:1031EC00F8D5191D29601B681A8000232361074636
:1031FC0017E02B681A1D2A601F683846FFF770FD10
:10320C0063682061984288BF23612369636005E08D
:10321C0004F1420784F8426001232361002384F8FF
:10322C004330CDF800A04046214603AA4B46FFF799
:10323C00A7FE013002D14FF0FF301FE04046494657
:10324C003A462369D0470130F5D023689B0705D453
:10325C00E068039B9842B8BF18460FE00025E2686F
:10326C00039BD31A9D42F3DA4046494604F11902F6
:10327C000123D0470130DED00135F0E704B0BDE8C2
:10328C00F08700BF2F3700084037000830B5141EF8
:10329C009BB0054604DA8B2303604FF0FF301CE033
:1032AC004FF4027200910491ADF80C2014BF04F19C
:1032BC00FF3121464FF6FF7202910591ADF80E20B9
:1032CC0069461A461E9BFFF76FFD431CBCBF8B2340
:1032DC002B6014B1009B00221A701BB030BD000093
:1032EC0073B50093054B06460D46144618683146D7
:1032FC002A462346FFF7CAFF02B070BD74000020B7
:10330C0010B5C9B202449042034605D01C78013076
:10331C008C42F8D1184610BD002010BD814270B50A
:10332C0001D300230EE08C18A042FAD28518134664
:10333C0013F1FF3305D351426618F65C2944CE5481
:10334C00F6E770BD934203D0CC5CC4540133F9E76B
:10335C0070BD000030B500293CD051F8042C0B1F77
:10336C001D49002AB8BF9B180A680C4612B95A604E
:10337C000B6030BD93420DD219685818904203D19E
:10338C005A581144426819605A60236030BD994202
:10339C0003D80A4651680029F9D1146815199D42C1
:1033AC000AD11B682344D0188842136012D10868D4
:1033BC00034413604B680CE002D90C23036030BD4E
:1033CC0018681C188C4203D10C684968204418609A
:1033DC005960536030BD00BF980E002070B5CD1CF5
:1033EC0025F0030508350C2D38BF0C25002D06469D
:1033FC003FDB8D423DD3214B1C6818462146A1B1C1
:10340C000B685B1B0ED40B2B03D90B60CC18CD5067
:10341C001FE08C4202D1626802601AE04B68636064
:10342C000C4616E00C464968E9E7154C23681BB9B5
:10343C00304600F04DF820602946304600F048F840
:10344C00431C014615D0C41C24F0030484420AD149
:10345C00256004F10B00231D20F00700C31A0BD0CC
:10346C005A42E25070BD3046611A00F031F801301A
:10347C00EED10C233360002070BD00BF980E0020ED
:10348C00940E0020F8B5064614460D4621B9114697
:10349C00BDE8F840FFF7A2BF1AB9FFF75BFF204663
:1034AC00F8BD00F025F8A0420ED230462146FFF7B9
:1034BC0095FF074650B129462246FFF7E3FB3046FD
:1034CC002946FFF747FF01E02846F8BD3846F8BD0E
:1034DC0038B5064C0023054608462360FEF708FA6B
:1034EC00431C02D1236803B12B6038BD9C0E002015
:1034FC0051F8040C002802DA04390B58184404382B
:10350C007047000002030405060708090A0B0C0D9E
:10351C000E0F101001020000537461636B20667271
:10352C00616D653A0A000000205230203D202025B4
:10353C003038580A00000000205231203D20202550
:10354C003038580A00000000205232203D2020253F
:10355C003038580A00000000205233203D2020252E
:10356C003038580A0000000020523132203D20250E
:10357C003038580A00000000204C52203D202025F5
:10358C003038580A00000000205043203D202025F0
:10359C003038580A0000000020505352203D20259E
:1035AC003038580A000000004653522F4641523A18
:1035BC000A0000002043465352203D20202530387D
:1035CC00580A00002048465352203D202025303810
:1035DC00580A00002044465352203D202025303804
:1035EC00580A00002041465352203D2020253038F7
:1035FC00580A0000204D4D464152203D20253038C0
:10360C00580A00002042464152203D2020253038E7
:10361C00580A00004D6973630A000000204C522FB9
:10362C004558435F52455455524E3D20253038582D
:10363C000A0000005B486172644661756C745D0A37
:10364C00000000005B4275734661756C745D0A0086
:10365C005B55736167654661756C745D0A000000AB
:10366C000000000000000000010203040607080926
:10367C0000000000010203040A0D0000526563659E
:10368C006976696E67206572726F72002569000039
:10369C00526563656976696E673A20004661696CAC
:1036AC00656420746F20726563656976650000003F
:1036BC004661696C656420746F207472616E736D01
:1036CC006974000054696D656F7574005472616E95
:1036DC00736D697474696E673A2000002E2E2F7317
:1036EC0072632F6D61696E2E630000005265636515
:1036FC0069766572207461736B00000053656E64AB
:10370C006572207461736B0049444C4500000000E5
:10371C004300232D302B2000686C4C0065666745F8
:10372C00464700303132333435363738394142432D
:10373C0044454600303132333435363738396162DE
:05374C006364656600E6
:1037540078563412880000200000000000A24A04B9
:10376400AAAAAAAA000000000000000000000000AD
:103774000000000000000000000000000000000045
:10378400000000001C3700080000000000000000DA
:103794000000000000000000000000000000000025
:1037A4000000000000000000000000000000000015
:1037B4000000000000000000000000000000000005
:0C37C40000000000140000203254769831
:040000050800010DE1
:00000001FF
